{
  "contractName": "Counter",
  "abi": [
    {
      "constant": true,
      "inputs": [],
      "name": "counter",
      "outputs": [
        {
          "internalType": "uint256",
          "name": "",
          "type": "uint256"
        }
      ],
      "payable": false,
      "stateMutability": "view",
      "type": "function"
    },
    {
      "constant": false,
      "inputs": [],
      "name": "increment",
      "outputs": [
        {
          "internalType": "uint256",
          "name": "",
          "type": "uint256"
        }
      ],
      "payable": false,
      "stateMutability": "nonpayable",
      "type": "function"
    }
  ],
  "bytecode": "0x608060405260008055348015601357600080fd5b50609e806100226000396000f3fe6080604052348015600f57600080fd5b506004361060325760003560e01c806361bc221a146037578063d09de08a14604f575b600080fd5b603d6055565b60408051918252519081900360200190f35b603d605b565b60005481565b60008054600101908190559056fea265627a7a72315820a8ab92ffa8c8ccfe14ddb4fbc61ff9d6b68a89bf2d8df1050aa19719d461ca9a64736f6c63430005100032",
  "source": "// SPDX-License-Identifier: MIT\r\npragma solidity >= 0.5.0 <= 0.9.0;\r\n\r\ncontract Counter {\r\n    uint256 public counter = 0;\r\n\r\n    function increment() public returns (uint256) {\r\n        counter = counter+1;\r\n        return counter;\r\n    }\r\n}",
  "sourcePath": "D:\\DAPPS\\Counter Dapp\\contracts\\counter.sol",
  "compiler": {
    "name": "solc",
    "version": "0.5.16+commit.9c3226ce.Emscripten.clang"
  },
  "schemaVersion": "3.4.10",
  "updatedAt": "2022-11-27T20:01:46.317Z",
  "networkType": "ethereum",
  "devdoc": {
    "methods": {}
  },
  "userdoc": {
    "methods": {}
  }
}